:020000040802F0
:1000000000000110810302088D8802084988020857
:1000100085880208CD3302087FE402080000000052
:10002000000000000000000000000000BB8B020880
:10003000C1350208000000000F8B0208CF8B0208B8
:100040009B0302089B0302089B0302089B03020810
:100050009B0302089B0302089B0302089B03020800
:100060009B0302089B0302089B0302089B030208F0
:100070009B0302089B0302089B0302089B030208E0
:10008000493402089B0302085D3202089B03020800
:100090009B0302089B0302089B030208C335020866
:1000A0009B0302089B0302089B0302089B030208B0
:1000B0009B0302083D8C02089B0302089B03020875
:1000C0009B0302089B0302089B0302089B03020890
:1000D0009B0302089B0302089B030208419202084B
:1000E0009B0302089B0302089B0302089B03020870
:1000F0009B0302089B0302089B0302089B03020860
:100100009B0302089B0302089B0302089B0302084F
:100110009B0302089B0302089B0302089B0302083F
:100120009B0302089B0302089B0302089B0302082F
:100130009B0302089B0302089B0302089B0302081F
:100140009B0302089B0302089B0302089188020894
:100150009B0302089B0302089B0302089B030208FF
:100160009B0302089B0302089B0302089B030208EF
:100170009B030208A18802089B0302089B03020854
:100180009B0302089B0302089B0302089B030208CF
:100190009B0302089B0302089B0302089B030208BF
:1001A00000000000000000009B03020800F002F8BD
:1001B00000F0BDF80AA090E8000C82448344AAF144
:1001C0000107DA4501D100F0B2F8AFF2090EBAE842
:1001D0000F0013F0010F18BFFB1A43F0010318477B
:1001E000D4D1040014D204000A444FF0000C10F8DB
:1001F000013B13F0070408BF10F8014B1D1108BFA5
:1002000010F8015B641E05D010F8016B641E01F844
:10021000016BF9D113F0080F1EBF10F8014BAD1C94
:100220000C1B09D16D1E58BF01F801CBFAD505E0B2
:1002300014F8016B01F8016B6D1EF9D59142D6D30C
:10024000704700000023002400250026103A28BF34
:1002500078C1FBD8520728BF30C148BF0B60704738
:100260006E2900F02987702900F03D83662934F05B
:100270003986652934F03686672934F0338661295A
:1002800034F0328603681B0A28BF41F080016929D7
:1002900000F01882642900F01582752900F012829E
:1002A0006F2900F0CA82782900F00983E92901F05A
:1002B000F782E42901F0F482F52901F0F182EF29B7
:1002C00000F0C782F82900F008830368DB0928BF23
:1002D00041F08001632901F0C082732901F0C582D9
:1002E000E32901F0D082F32901F0D5820020704784
:1002F0001FB534F0EAFD9DE8030000F043FE00F076
:100300000EFC01F043FC04000020002134F02EF824
:10031000401C60600020002134F03EF8E06000F0F6
:10032000E7FD1FBD10B5002001F0C5FB10BD01F0B9
:10033000CEFD1146FFF7DCFF33F07DFD02F06CF8D7
:1003400003B4FFF7EFFF03BC01F016FC0B49D1F833
:1003500000C04A685CF8043B1068184442F8040B7B
:100360008C4528BFA1F1DC0C8A4228BFA1F1DC0238
:10037000C1F800C04A6020F0004070478CFF0220A6
:100380000948804709480047FEE7FEE7FEE7FEE729
:10039000FEE7FEE7FEE7FEE7FEE7FEE70448054965
:1003A000054A064B70470000D98B0208AD010208D0
:1003B000008000100000011000A0001000A000103C
:1003C00070B5064600F0B6FD056806F10B0020F09A
:1003D0000704B4429CBF002070BD2B466A68BAB1C6
:1003E0001068A04210D304F1080188423CBF506855
:1003F000586007D35168101941601168091B0160EA
:1004000058601460101D70BD13465268002AE7D171
:100410002146284600F0A2FD0028DED170BD70B54F
:100420000446051F00F086FD0068002C14BF4468D8
:1004300070BD002C18BFAC423CBF20466468F8D3A6
:1004400001680A18AA4218BF456003D12A68054608
:100450001144016028684119A1421CBF6C6070BD45
:100460006168696021680844286070BD53EA020C25
:1004700000F069802DE9F04B4FF00006002B1FBF04
:10048000B3FA83F503FA05F424FA05F65E4012BFC9
:100490001643B2FA82F502FA05F4C5F120051EBF33
:1004A00022FA05FC44EA0C04203556EA044C4FEAD3
:1004B000144418BF641C4FF000084FF0000990422C
:1004C00071EB030C39D3002919BFB1FA81F701FA96
:1004D00007F6B0FA80F700FA07F6C7F120071EBF4B
:1004E00020FA07FC46EA0C062037B6FBF4FCA7EB23
:1004F0000507103F07F01F0BCBF120060CFA0BFB92
:100500002CFA06F644BFB3460026202FA4BF5E4651
:100510004FF0000B5BEA060C08BF4FF0010B19EB24
:100520000B09ABFB027C48EB0608C01B06FB02CCA8
:100530000BFB03CC71EB0C01C1E70B4602464146B5
:100540004846BDE8F08B13B54FF000004FF00001B6
:10055000AFF30080BDE81C40704710B5044600F0C2
:10056000E1FC0068005D000704D5DF2C02D0A4F197
:10057000200010BD204610BD1CB50C46064B7B4428
:1005800069460090204601F03EF904460020694685
:1005900001F04CF920461CBDAB1200000FB41CB595
:1005A000084B06AA7B4469460090059801F02BF998
:1005B00004460020694601F039F920461CBC5DF86C
:1005C00014FB0000851200000FB47CB50C0009AAD2
:1005D000009001D02044401E084B7B4469460190A6
:1005E000089801F010F905461CB10020694601F099
:1005F0001DF928467CBC5DF814FB00005912000070
:1006000070B5044685690068C10601D5302600E052
:100610002026C00707D070BDD4E90121304690479D
:10062000206A401C20626D1EF6D570BD70B5044670
:1006300085690078C00707D170BDD4E90121202069
:100640009047206A401C20626D1EF6D570BD096877
:100650004A0501D540B27047C905FCD500B27047C4
:1006600009684A0501D5C0B27047C905FCD580B2FA
:10067000704770B50C460546012A05D028788006DB
:1006800000D5EA69002302E0012305E05B1C9342E8
:1006900002D2E05C0028F9D1A869E618C01AA86166
:1006A000286A184428622846FFF7AAFF04E0D5E923
:1006B000012114F8010B9047B442F8D32846FFF704
:1006C000B5FF70BD2DE9F04106460024106875297C
:1006D000314616A510D0FFF7BAFF002802DA4042D3
:1006E00013A507E031688A0701D512A502E0490782
:1006F00004D511A5012401E0FFF7B2FF00210A2271
:1007000006F1240709E0B0FBF2FCB0FBF2F302FBB8
:100710001C00303078541846491C0028F3D1234679
:100720002A463046BDE8F04100F06DBC00000000F4
:100730002D0000002B000000200000002DE9FF5FCD
:1007400015468A460446DFF8AC80F8440027D8E90D
:1007500000103E46CDE9001010E03AF816106A4647
:1007600002A801F07DF9411C07D02178890603D544
:10077000E269391891420DD80744761C207880062A
:1007800002D5E069B84205DDAE42E6DB3AF8160074
:100790000028E2D1A069C01BA0612046FFF730FF0E
:1007A000D8E90010CDE90010002017E03AF8181041
:1007B0006A4602A801F054F9B0F1FF3F81460BD020
:1007C00000250DF1080B05E0D4E901211BF8050017
:1007D00090476D1C4D45F7D308F10100B0428046AB
:1007E000E4DB206A384420622046FFF71FFFBDE8A3
:1007F000FF9F00005E7C040030B4002100F124045F
:1008000008E002F00705D208303542EA4372DB08FF
:100810006554491C52EA0305F3D10468002310A271
:10082000250707D5A40600D421B1C46901230DA270
:10083000641EC46130BC00F0E6BB10B5044621461E
:100840001068FFF70DFF02462046BDE81040002368
:10085000D2E7D21D22F00701D1E90023CCE7000046
:100860000000000030000000F0B40D4601880905CA
:1008700002D5214C7C4402E01F4C7C440E34002104
:1008800000F1240608E002F00F071209E75D42EAD2
:1008900003721B097754491C52EA0307F3D102780B
:1008A0000023120704D5702D06D009B1022311349C
:1008B0002246F0BC00F0A7BB01231034F8E770B566
:1008C00004460D4621461068FFF7CAFE0246294637
:1008D0002046BDE870400023C6E7D21D22F0070382
:1008E000D3E90023C0E70368126843F020030360E4
:1008F0000823C3610023B7E73C7B04002DE9F05FC8
:10090000894604464FF0000ADFF874B1FB44C0F892
:1009100020A02046E1688847002874D0252806D00A
:10092000D4E901219047206A401C2062F1E70026AB
:100930005F462046E16888472028054607DB312DC1
:1009400005D2781910F8200C08B10643F1E7B0077A
:1009500001D526F00406C4F81CA00027C4F818A08E
:100960002A2D09D0284631F061FC38B304EB870802
:10097000303DC8F8185019E059F8041B204604EB24
:1009800087029161E1688847012F054618D1E06927
:10099000002820DA26F020061DE0D8F8180000EB29
:1009A000800005EB40003038C8F818002046E168A8
:1009B0008847054631F03AFC0028EED1012F0AD0D5
:1009C0002E2D08D12046E16888477F1C0546022F5E
:1009D00046F02006C4DBA069002803DA404246F056
:1009E0000106A061F00701D026F010066C2D0BD097
:1009F000682D09D04C2D39D06A2D35D0742D35D0C5
:100A00007A2D33D016E038E0E1682F46204688473B
:100A1000B842054609D16C2F26D04FF48060E168BA
:100A2000064320468847054604E06C2F1AD04FF451
:100A3000807006430DB3A5F14100192802D8203576
:100A400046F400664A462946204626604E46FFF791
:100A500007FC80B101280BD0F61D26F0070000F13D
:100A6000080956E74020E4E78020D8E70020D6E7D1
:100A700006F104094DE7284652E7206ABDE8F09FD9
:100A8000CC7A04002DE9F04791460F468046044693
:100A9000002614F8015B2DB100F044FA0068405DB7
:100AA000C007F6D12B2D02D02D2D18D0641E4A463A
:100AB0003946204600F032FF27B13968A14201D102
:100AC000C7F800804FF0020471050BD540420028A2
:100AD00003DD00F03BFA0460A007BDE8F08746F4B0
:100AE0008066E4E70028F8DA00F030FA04606FF07E
:100AF0000040F2E70B4910B5A1F17C020A4CC2E9B3
:100B00003712372106E000EB104342F82130074B43
:100B100000FB03400B1EA1F10101F4DC10BD01201C
:100B2000E8E700002CFF0220E119D666CD0D010098
:100B30002DE9F041074615460E461020FFF740FC10
:100B400004000AD06760C4E9026500F0FBF901689F
:100B5000216004600020BDE8F0810120FBE740EA4D
:100B6000010310B59B070FD1042A0DD310C808C983
:100B7000121F9C42F8D020BA19BA884201D901202C
:100B800010BD4FF0FF3010BD1AB1D30703D0521C77
:100B900007E0002010BD10F8013B11F8014B1B1BB2
:100BA00007D110F8013B11F8014B1B1B01D1921E1C
:100BB000F1D1184610BD40EA0103024630B59B074B
:100BC00010D14FF0013400E008C208C91D1B9D433D
:100BD00015EAC41FF8D013F0FF0102F8011B0DD075
:100BE0001B0AF8E711F8013B002B02F8013B05D086
:100BF00011F8013B002B02F8013BF3D130BD10B5D9
:100C0000431C02E010F8011B71B18107FAD14FF0CB
:100C1000013202C88C1A8C4314EAC211F9D0C01AEE
:100C20000A0603D0C01E10BDC01A10BD0A0401D0B0
:100C3000801E10BD0902FCD0401E10BD421E12F8DD
:100C4000013F002BFBD111F8013B002B02F8013BC7
:100C5000F9D17047032A40F2308010F0030C00F005
:100C6000158011F8013BBCF1020F624498BF11F8E6
:100C700001CB00F8013B38BF11F8013BA2F104029F
:100C800098BF00F801CB38BF00F8013B11F0030317
:100C900000F06780083AC0F0088051F8043B083A39
:100CA00051F804CBA0E80810F5E7121D5CBF51F81D
:100CB000043B40F8043BAFF30080D20724BF11F897
:100CC000013B11F801CB48BF11F8012B24BF00F8FC
:100CD000013B00F801CB48BF00F8012B7047431AD5
:100CE00028BF9A427FF6B6AF032A1044114440F25F
:100CF000268010F0030F1EBF11F8013D521E00F8B0
:100D0000013D10F0030F7FF4F6AF11F0030300F084
:100D10000687083AC0F00B8051F8043D083A51F8B4
:100D200004CD40F8043D40F804CDFFF7F3BF121D99
:100D30005CBF51F8043D40F8043DAFF30080D2079A
:100D400024BF11F8013D11F801CD48BF11F8012C65
:100D500024BF00F8013D00F801CD48BF00F8012C88
:100D6000704710B5203AC0F00B80B1E81850203A17
:100D7000A0E81850B1E81850A0E81850BFF4F5AF3B
:100D80005FEA027C24BFB1E81850A0E8185044BFC5
:100D900018C918C0BDE810405FEA827C24BF51F832
:100DA000043B40F8043B08BF7047D20728BF31F826
:100DB000023B48BF11F8012B28BF20F8023B48BF77
:100DC00000F8012B704702F0FF0343EA032242EAD6
:100DD000024200F002B84FF000020429C0F0128075
:100DE00010F0030C00F01B80CCF1040CBCF1020FDE
:100DF00018BF00F8012BA8BF20F8022BA1EB0C01B3
:100E000000F00DB85FEAC17C24BF00F8012B00F8A8
:100E1000012B48BF00F8012B70474FF0000200B5CE
:100E2000134694469646203922BFA0E80C50A0E80D
:100E30000C50B1F12001BFF4F7AF090728BFA0E8BB
:100E40000C5048BF0CC05DF804EB890028BF40F887
:100E5000042B08BF704748BF20F8022B11F0804FC9
:100E600018BF00F8012B70474FF0013C50F8042BDD
:100E700051F8043B9A4221D1A2EB0C03934313EAAD
:100E8000CC1317D150F8042B51F8043B9A4215D1DA
:100E9000A2EB0C03934313EACC130BD150F8042BB1
:100EA00051F8043B9A4209D1A2EB0C03934313EA95
:100EB000CC13DBD04FF00000704700BFD01A01BA4E
:100EC000B1FA81F101F0180122FA01F0CB40C1F131
:100ED0002001DBB2C0B2C01A2CFA01F3D11A91433F
:100EE00011EAC311E6D170477047704770470000A0
:100EF00070B5064C7C44064D7D4403E020682044D8
:100F00008047241DAC42F9D170BD000038C60400F2
:100F100044C7040010B52DF087FFBDE810402DF048
:100F2000AFBE000010B500F031FE001D10BD00BFC7
:100F30003D340300004870479CFF02200048704782
:100F4000C8FF022000487047CCFF022000487047CD
:100F500094FF0220704770477047704738B50446C9
:100F60000A4600206946AFF30080002808BF38BD5C
:100F700002460099204600F00DFE012038BD0120F8
:100F800000F057BFF8B5AFF30080054600200C46CF
:100F9000102000BF0646A819A0420DD93246694666
:100FA0000020AFF30080070008BF00F042FF009868
:100FB000A04218BF0546C419FFF7BCFF05600746ED
:100FC000F01D20F007004619284600F00AF8B44248
:100FD00008BFF8BDA21B31463868BDE8F84000F0F4
:100FE000D9BD00210160C0E9011070471020704791
:100FF00010B5FFF7ABFF006810BD10B50446FFF752
:10100000A5FF046010BD2DE9F0470D4699469246B4
:10101000044600F124080168880604D5E06921F03F
:101020001001216000E00120A84201DD471B00E023
:101030000027A1697A1902EB0900081AA06120783B
:10104000C00602D42046FFF7DBFA002608E0D4E908
:1010500001211AF806009047206A401C761C206285
:101060004E45F4DB2078C0060AD52046FFF7C8FAC3
:1010700006E0D4E9012130209047206A401C20621C
:10108000381EA7F10107F4DC07E0D4E9012118F8C4
:1010900005009047206A401C2062281EA5F101052A
:1010A000F3DC2046FFF7C2FA2078000602D50220C2
:1010B000BDE8F0870120FBE711680268006A53056C
:1010C00001D508700AE0D30501D5088006E01306B3
:1010D00003D5C217C1E9000200E008600120704793
:1010E00070472DE9FF4F0C461E464FF0FF378BB07F
:1010F000D2E90001DDF860800A908A46C1F30A5502
:1011000005B93D46002108464FF00000BAF1000F36
:1011100000F4400005DA00EB80004FF4400101EAE2
:1011200050004FEA9059B9F1010F00DDB9460A9815
:1011300050EA4A000ED044F61050A5F2FF35454360
:101140002F14B8F1000F1ED07542291E1EDDC9F103
:1011500000021CE0B8F1010F4FF0000001D0302177
:1011600003E0F24305E02154401CB042FBDB304673
:101170000022002121540B99C1F80880C1E9002008
:101180000FB0BDE8F08FBD1B6D1CDEE74A4600DAEC
:10119000694206A800F0D4FD06AB93E8070003AB54
:1011A00083E8070050460A9901F00DFC8DE807001E
:1011B000A0F500501F3800900398002D0ADD42F280
:1011C0001F014A460844002303A90390684601F022
:1011D000B9FE09E0A0F500504A461F38002303A9D4
:1011E0000390684601F0D8FE8DE807000004000C6B
:1011F00003D04FF0FF30410800E01046B8F1000F77
:1012000003D00022009215461EE0751E05D400F0A2
:10121000DBFC303262556D1EF9D5B346012208431E
:1012200002D000227F1C04E02078302801D1002267
:101230007F1E002A099784D01DE0112D07DA00F0E7
:10124000C3FC303262556D1C50EA0102F5D10843EF
:1012500002D00098C8B10EE00021681E05E0235CB2
:10126000625C63542254401E491C8142F7DBAB464A
:10127000A81B401E0990002004F80B000B98099A47
:10128000C0F80880C0E9002B7AE711264FF000086B
:1012900057E72DE9F04F88460446D21D22F007019A
:1012A00091B0D1E90001CDE90A012DF05CFD0246C3
:1012B0000B98C00F01D02D2007E02068810701D5D1
:1012C0002B2002E0202101EAC000032A099001D06E
:1012D000072A05DB03464146204600F0C3FC0BE12C
:1012E0002078800601D5E06900E00620B8F1650F9E
:1012F000814606D0B8F1660F18D0B8F1670F70D1EB
:1013000031E00020B9F1110F009001DB112301E061
:1013100009F101030AAA01A90CA8FFF7E2FEDDE921
:101320000C70002609F10105834647E001204B4679
:1013300000904FF000470AAA01A90CA8FFF7D1FEC0
:10134000DDE90DB00C995D46002610B909F10100E8
:101350000D18B9EB050003D4C0F1FF3609F1010502
:10136000A5EB09002BE0B9F1010F01DA4FF00109FB
:101370000020B9F1110F0090484601DD112300E073
:1013800003460AAA01A90CA8FFF7ABFEDDE90C7021
:101390004D4600268346207800070AD4AB4500DA84
:1013A0005D4601A8012D04DD411911F8011C302909
:1013B00007D04F4502DA17F1040F04DA0120824604
:1013C0000FE06D1EEEE7002F02DCED1B3E4403E054
:1013D000781CA84200DD7D1CB81B00F1010A4FF00B
:1013E00000472078000703D4AA4501DB4FF0FF3AFD
:1013F0000021B7F1004F0DF143088DF8431024D0C0
:1014000002202B23002F01DA7F422D230A21021E06
:10141000A0F1010000DC5FB197FBF1FC97FBF1F25A
:1014200001FB1C7C17460CF1300C08F801CDEEE7EF
:10143000A8F1010003702188090501D5452100E0CC
:101440006521A0F1010800F8011C09980FA9A1EB82
:101450000807FF1D00B10120411901EBEA70A169E5
:101460003844081A401EA0612078C00602D42046E5
:10147000FFF7C6F8099828B1D4E901219047206AFE
:10148000401C20622078C00622D52046FFF7B8F81D
:101490001EE0002E04DBB34502DD01A8805D00E004
:1014A0003020D4E901219047206A401C2062761C3C
:1014B000AAF101005FEA000A0AD100F067FBC068E8
:1014C0000168405CD4E901219047206A401C2062F9
:1014D000281EA5F10105DCDC07E0D4E9012118F89C
:1014E000010B9047206A401C2062381EA7F10107BB
:1014F000F3DC2046FFF79AF8032011B041E6000024
:101500002DE9F04F04460D46D21D22F0070089B0A8
:10151000D0E90097484639462DF025FC0246F80FE1
:1015200001D02D2307E02068810701D52B2302E09D
:10153000202101EAC0038DF820300BB1012000E02A
:101540000020032A824601D0072A04DB29462046D0
:1015500000F088FB3FE12078800601D40D2500E0F3
:10156000E569C7F30A560D2D49DA00214FEA175BEA
:1015700008464FF00000002F00F4400007DA00EBAF
:1015800080004FF4400100EBD07001EA600081154B
:10159000012901DD4FF0FF3100224FEA850CBCF13B
:1015A000180F06D31346ACF118004FF08052C2401A
:1015B00003E04FF4801323FA0CF30CF10C0CBCF194
:1015C000200F04D3ACF1200C09FA0CF001E007FA6B
:1015D0000CF000294FF0004801DD18B90FE00ED1E2
:1015E00040450CD319EB02095F4121B9404502D1B6
:1015F0009F4329EA0209BBEB175F00D0761C2088C5
:10160000000502D57B48784402E07A4878441938CE
:1016100008AA302302F80A30037C0AF10101002EE7
:101620000AF1020A53546A4602DC4FF0300101E02D
:101630004FF031014FF001088DF8001002D0A6F2F2
:10164000FF3603E059EA470100D06B4E002D02DC63
:101650002178090704D54FF002082E218DF80110DA
:10166000C44600210BE0C7F303433F01C35C491CA0
:101670006D1E02F80830052908F1010801DA002D75
:10168000F1DC00210CE000EB1973491C1B786D1E86
:10169000082902F808304FEA091908F1010801DAAF
:1016A000002DF0DC21688B0602D516E0A8F10108B8
:1016B000E04505DD02EB080313F8013C302BF5D0C3
:1016C000B8F1000F09DD02EB080313F8013C2E2BE3
:1016D00003D1090701D4A8F10108002D05DD3E2141
:1016E00002F808106D1E08F10108407C002E02F877
:1016F000080008F1010804DA2D20764202F80800FB
:1017000002E02B2002F808000A214FF47A7086428A
:1017100008F101080BDB96FBF0F3303302F80830D8
:1017200096FBF0F308F1010800FB136601E0642E5C
:101730000CDB642096FBF0F3303302F8083096FBA4
:10174000F0F308F1010800FB136601E00A2E06DB46
:1017500096FBF1F0303002F8080008F1010896FB22
:10176000F1F001FB1060303002F80800A16908F1C7
:10177000010808EB050202EB0A00081AA0612078B4
:10178000C00602D42046FEF73BFF216A08AE01EBFB
:101790000A00206204E0D4E9012116F8010B904709
:1017A000BAF1010AF7D22078C00602D52046FEF72A
:1017B00027FF6E4609E016F8010B3E280FD0D4E94A
:1017C00001219047206A401C2062B8F10108F2D242
:1017D0002046FEF72BFF09B00320BDE8F08F206AFA
:1017E0002844206203E0D4E90121302090476D1E97
:1017F000EBD3F8E7396E040002FCFFFF01694A1CD5
:1018000002610878704700B58FB0CDE90131002141
:10181000059105497944CDE9031011466846FFF763
:101820006DF80FB000BD0000E5FFFFFF0A6802F889
:10183000010B0A607047D1E900239A4202D2531C7F
:101840000B601070704710B5436913B1AFF300809F
:1018500001E0FEF70EFF012010BD127800F1240117
:101860000A7000224A700122EDE711684FF0FF3242
:10187000E9E710B5436913B1AFF3008001E0FEF76B
:101880005DFF012010BD128800F124018284002236
:10189000C2840122EDE711684FF0FF32E9E7000052
:1018A0002DE9F0418046D21D22F007020025D2E941
:1018B0000002F52915A614D0011E72F1000106DA06
:1018C0000023D0EB030063EB020211A608E0D8F876
:1018D00000108B0701D50FA602E0490701D50EA61F
:1018E00001251146002408F1240704E000F06CF9FA
:1018F00030323A55641C50EA0102F7D12B46324689
:1019000021464046BDE8F041FFF77DBB00000000E6
:101910002D0000002B000000200000002DE9F05FEA
:10192000824615468B4600270AF10104B946007825
:10193000302801D09DB113E014F8010B012778285D
:1019400003D0582801D045B10AE00DB1102D07D1C0
:10195000002714F8010B102502E0082500E00A25F5
:101960000026B0460EE005FB080005FB06F1012746
:101970001FFA80F801EB1046B6F5803F00D3B94658
:1019800014F8010B294600F0ADF90028EBDABBF1A1
:10199000000F05D00FB1641E00E05446CBF80040A4
:1019A000B9F1000F06D0FFF7D1FA02210160C81E7D
:1019B000BDE8F09F48EA0640FAE700000FB40023B4
:1019C00000B589B00CA900910B99CB60214B7B44E9
:1019D0000693214B7B44079304236FF00042CDE92B
:1019E00001321E4A7A446B4608920246002033F0C8
:1019F000DDFA09B05DF814FB70B506464FF0FF3014
:101A000015460C46324686B00091CDE90101694683
:101A10000020049004A8FFF7D1FF02460498211883
:101A200025B108B1084600E0204628600498002847
:101A30000DD0002A02DD0098884208D03246081BEB
:101A400069460094CDE9010404A8FFF7B7FF06B08A
:101A500070BD00002F030000470300006B02000070
:101A600070B516460C460546FFF75CFA036893F816
:101A70000101012806D0FF2C0FD8185D68B10120A4
:101A80002C7070BDD3F807013246214603F20713CC
:101A900003442846BDE8704018474FF0FF3070BD42
:101AA00010B5002000F0BEF9FEF73CFCBDE8104088
:101AB000012000F061B82DE9F0410646FFF742FA37
:101AC0008046454613E016B1E068B0420ED120686A
:101AD0002860D4E90101D8F8007088472046FEF755
:101AE0009EFCD8F80000B842EBD100E025462C68F7
:101AF000002CE8D1BDE8F081431A28BF9A427FF656
:101B000030A9104410F0030F11441EBF11F8013D1D
:101B1000521E00F8013D10F0030F7FF4F6AF103AAB
:101B2000C0F00A8010B531E91850103A20E9185079
:101B3000BFF4F9AFBDE81040530724BF31E90810E6
:101B400020E9081044BF51F8043D40F8043D12F06C
:101B5000030F08BF7047D20728BF31F8023D48BFC6
:101B600011F8012C28BF20F8023D48BF00F8012CD5
:101B7000704700F076B900DE01491820ABBEFEE7E1
:101B8000260002000048704794FF0220004870477A
:101B9000B4FF0220034640688C46002818BF8842E4
:101BA0003CBF03464068F8D318681844884207D001
:101BB0000CF1030020F00700001D411A521A0146E3
:101BC000081D0A60FEF72BBC30B5B0F10A024FEADF
:101BD000900E71F100034EEA817EB0EB0E0061EBD6
:101BE00091014FEA101E4EEA017E10EB0E0041EB10
:101BF00011114FEA102E4EEA016E10EB0E0041EB70
:101C000011214FEA104E4EEA014E10EB0E0041EB4F
:101C10001141401841F100014FEAD00040EA417003
:101C20004FEAD10110EB80054FEA810444EA907439
:101C300044EB01046D1944EB0404521BA3414FF023
:101C4000000348BF0A3200D530BD401C41F10001FD
:101C500030BD10B50446FFF765F90068005D00F07F
:101C6000010010BD2DE9F0411F460446032601681E
:101C7000072A01F4006004DB08B116A505E016A5EB
:101C800003E008B115A500E015A521F010002060C3
:101C9000A069C01EA0610FB1401EA0612046FEF7E2
:101CA000AFFC4FB1D4E9012138469047206A401C6F
:101CB0002062C01C206206E0206AFAE7D4E9012114
:101CC00015F8010B9047761EF8D22046FEF7AEFCC1
:101CD000BDE8F0814E414E006E616E00494E4600F7
:101CE000696E66003A2800D2303820F02002412A7E
:101CF00001D3A2F13700884201D34FF0FF30704783
:101D0000426842B1016811F8013B23B1521EC0E99B
:101D10000012184670470121C160881E7047426852
:101D20005AB1C368016843B983688B4205D0491E24
:101D3000521CC0E90012002070474FF0FF3070477E
:101D40002DE9F047814616468AB0354878440DC8DB
:101D50008DE80D0032487844801C03AC0DC884E83F
:101D60000D0041F69B300844372190FBF1F290FBC7
:101D7000F1F5A5F1800501FB12041B3C02D564427C
:101D8000012000E00020DFF898A080460027FA44F8
:101D9000AAF1BE0A0EE0E0070AD03246684607EB19
:101DA000470101230AEB810101F0F6F88DE80700F5
:101DB00064107F1C002CEED1194F7F44AE3F19E018
:101DC000E80715D007EB04100DF1180A90E80E0093
:101DD0008AE80E00C068F04201D198190890324696
:101DE000012306A903A801F0D7F803AB83E8070095
:101DF0006D10641C002DE3D14FF00103324669469B
:101E0000B8F1000F03A802D001F09CF801E001F046
:101E1000C3F8C9E90001C9F808200AB0BDE8F08795
:101E2000A467040010B500F005FBBDE8104000F009
:101E3000FCBA10B500F016FBBDE8104000F0F5BA92
:101E40002DE9F04117460E46054633B107FB035412
:101E5000E41B2046B047A542FAD1A5F10800BDE831
:101E6000F08110B500F00DF8016919B1002202618E
:101E7000884701E080688047FFF712FE10B5FFF742
:101E80000FFE70B500F048F804680546A4B920209C
:101E9000FEF796FA040011D0094900202C60C4E92D
:101EA00000010849A1602073206160610649A061BA
:101EB00009B100F00DFBE061204670BDFFF7F0FDB9
:101EC000000000007D1E02080000000070477546FB
:101ED000FFF758FEAE4605006946534620F007005E
:101EE000854618B020B5FEF759FABDE820404FF0FE
:101EF00000064FF000074FF000084FF0000B21F0F4
:101F00000701AC46ACE8C009ACE8C009ACE8C009C0
:101F1000ACE8C0098D46704700487047D0FF0220EA
:101F20002DE9FF4F06468BB00878FF2806D0491CE4
:101F30002D2805D000244FF0000908E000200CE017
:101F40000124F8E709EB8903491C00EB43090878F1
:101F5000FF28F7D114B1C9F100008146107800259F
:101F60002C46AA4629462D2801D02B2804D1521CE4
:101F70002D2813D0002082468B461078FF280FD0E2
:101F80004FF0000C0A21521CA5FB017804FB0181D3
:101F900005FB0C11C5194BEB0104EEE70120EAE744
:101FA000002108464FF00000BAF1000F02D000EB0C
:101FB00080004008C0F38157012F01DD4FF0FF374B
:101FC0000E9955EA040009EB01080BD04FF0020905
:101FD00018F5FA7F16DA4FEACA70002F706008DD34
:101FE000012007E04FEACA70C6E900B00FB0BDE8B3
:101FF000F08F00203060FEF7A9FFC0F80090182194
:10200000084616E0B8F5FA7F18DD002F02DAF74827
:10201000784401E0F6487844D0E90010C6E90010A1
:1020200040EACA707060FEF791FFC0F8009014217A
:1020300008460FB0BDE8F04F32F051BF002108460E
:102040004FF00000B8F10001099002DAC7F1000278
:1020500000E03A4601DAC8F1000106A8FFF770FE79
:1020600006AB93E8070003AB83E8070044F23E00A9
:102070005BEA04010090584604D144F21E012C464C
:102080005D460091210C0904014306D10099240406
:1020900044EA15442D041039009104F07F410143B6
:1020A00006D10099240244EA15642D0208390091F2
:1020B00004F07041014306D10099240144EA1574EB
:1020C0002D01091F009104F04041014306D1009900
:1020D000A40044EA9574AD00891E009104F000410B
:1020E000084304D100986D196441401E00904FF0E0
:1020F00001033A466846B8F1000FCDE9014503A94E
:1021000002DD00F05EFF01E000F031FFBAF1000FE8
:1021100004460D4601D084F00044002108464FF0EB
:102120000000099940F2FF77484010F00C0F07D1EA
:1021300024F00040284303D0C4F30A50B84212D11F
:10214000FEF704FFC0F80090C4F30A50B8420AD169
:10215000A8487844D0E90010C6E9001004F0004116
:102160000843706042E7C6E900543FE72DE9FF4F9E
:102170001F464FF0000A4FF0FF38454691B0D7E9AF
:102180000146CDF83CA0FFF701FDC0680168405C46
:102190001090B96912986D1C8847396A8146884742
:1021A0000028F6D1B9F1FF3F0AD0002E24F4D06404
:1021B00011DDB9F12B0F08D0B9F12D0F0BD102E0D1
:1021C000404615B013E744F48064B96912986D1C59
:1021D0008847761E8146600504A901D52D2000E0C0
:1021E0002B20002E01F1010B0DF130088DF81000AD
:1021F0003FDDB9F1690F08D0B9F1490F05D0B9F148
:102200006E0F02D0B9F14E0F1CD13B4601A80095CC
:1022100080E85002DDE912126FF0020032F0CAFECF
:10222000C11CCED10EE0B96912986D1C8847814659
:102230001398761E44F4007405600F98401C002E1D
:102240000F9016DDB9F1300FEDD0B9F1780F02D053
:10225000B9F1580F0DD10F9801280AD13B46CDE9AD
:102260000054DDE91212001F029632F0A1FEC11CDB
:10227000A7D1109989453ED144F0800406E0139916
:10228000681CAAF1010A44F400740860B9696D1C65
:102290001298761E884730288146F0D02BE010999E
:1022A000894505D1200603D4761E44F0800418E049
:1022B00048462FF0BBFF08B3761E0DF123018B4576
:1022C00044F4007408D2A9F130000BF8010B200689
:1022D00007D5AAF1010003E0200602D40AF10100AB
:1022E0008246A00502D51399681C0860B969129846
:1022F0006D1C88478146002ED1DC53E0002E51DD55
:10230000B9F1650F02D0B9F1450F4BD1A00549D500
:10231000B9696D1C1298761E24F440748847002E0B
:1023200081460CDD2B2804D0B9F12D0F07D144F4E0
:102330008074B96912986D1C8847761E8146E00545
:1023400001D52D2100E02B2108F8011BCDF80080DC
:1023500021E0761E0DF13901884544F400740CD259
:10236000A9F1300010F0FF0088F8000002D10099B8
:10237000884509D908F1010806E0E00501D51E48A5
:1023800001E042F20F708246B96912986D1C8847CD
:10239000814613980560002E04DD48462FF046FF65
:1023A0000028D6D1F96912988847FF2053468BF848
:1023B000000088F8000000200A900B9004AA0CA9E5
:1023C0000AA8FFF7ADFDA00502D46FF00100F8E602
:1023D00014F0240F12D0E0071CD13868DDE90A128E
:1023E000031D3B600068C0E9001213E0E8B304007D
:1023F000DAB304009EB20400F1D8FFFF0AA96846D0
:102400002DF060F9E00705D13868009A011D3960A8
:10241000006802602846D4E610B50446AFF3008099
:102420002046BDE81040FDF78BBF002801D0FFF724
:10243000A3BB704710B5002102A000F067F801208F
:1024400010BD0000534947414252543A2041626E48
:102450006F726D616C207465726D696E6174696F05
:102460006E00000010B5012805D0002103A000F087
:102470004DF8012010BD09A1F8E70000534947526B
:10248000544D454D3A204F7574206F662068656144
:1024900070206D656D6F7279000000003A2048650C
:1024A0006170206D656D6F727920636F72727570E7
:1024B000746564002DE9F04116461F460C46851BE5
:1024C00002E02846B847AD1B641EFAD2BDE8F08191
:1024D00010B58820FDF774FF002801D0002101709D
:1024E00010BD802902D808B1017809B100207047D9
:1024F000012100F8081B704718B100F10802914251
:1025000001D00020704700210170704770B505466A
:102510000C460A2000E06D1C00F011F835B1287857
:102520000028F8D102E0641C00F009F814B120780A
:102530000028F8D1BDE870400A20AFF3008008B54C
:1025400069468DF800000320ABBE08BD2DE9FF4FA2
:102550001F464FF03C0987B04FF00042DDE91410F0
:1025600001F10108DDF858A002EA40500390002074
:1025700005908346054604460490B969461E0898AE
:102580008847AAF1010A0290BAF1000F3BDD0298D8
:102590002E2815D01021FFF7A5FB00282EDB4FF0C9
:1025A000010B0599014317D0B9F1000F0BDB4A4627
:1025B000C11700F0F5F905430C43A9F1040905E042
:1025C000012004900BE008B145F0010501200590C1
:1025D000049820B9361D02E0049800B1361FB9698D
:1025E000089808F101088847BBF1000FAAF1010A19
:1025F0000290C9D00999C1F80080C5E702987028F7
:1026000008D0502806D0F96908988847BBF1000F18
:1026100014D04FE0002002900120BBF1000F049085
:1026200009D0B969089808F101088847AAF1010999
:10263000B9F1000F07DCF969089888476FF00100CD
:102640000BB0BDE8F08F2B2804D02D280CD14FF013
:10265000FF300490B969089808F101088847A9F18A
:102660000109B9F1000FE6DD411CE4D00A21FFF7B2
:1026700039FB0028DFDB029908F1010801EB810139
:1026800000EB41000290B969089888470A21FFF7DA
:1026900029FB099AA9F10109B9F1000FC2F80080DC
:1026A00001DD0028E7DAF96908988847049902985B
:1026B00000FB016655EA040004D004F04041090023
:1026C00002D006E0039898E0A40044EA9574AD00B7
:1026D000B61E04F00041080002D16D196441761E57
:1026E000159810F0240F03D04FF00B095C4803E05D
:1026F0004FF028096FF07D008246564507DAAAEBB5
:1027000006018944B9F1410F01DD4FF04109012073
:102710000021A9F1010200F043F9024628400B46CE
:102720002140084301D0012100E00021501E029108
:1027300043F1FF3128402140084301D0012000E04F
:1027400000200299834651EA0B014FD00021084630
:102750004FF00000039900F4400039B100EB800015
:102760004FF4400100EBD07001EA600080150128B1
:1027700002DD4FF0FF3000E013D0401C36D002984D
:1027800060B3BBF1000F0CD14A460120002100F0DC
:1027900007F928402140084301D0012000E0002033
:1027A000E0B101204A46002100F0FAF80346401942
:1027B0000A4661412D1A8C4111D3B9F1400F09DD50
:1027C000159810F0240F02D0AAF1340603E0AAF104
:1027D000170600E0761C00254FF0004406E05B1E63
:1027E00042F1FF3220EA030521EA0204CAF10100A6
:1027F000B04206DA1B49039808430190002000907C
:102800000EE0039AC4F3D321E80A0A43164940EACA
:1028100044500A433146CDE9000268462FF0FCFCE3
:10282000159810F0240F0BD01598C00715D13868F3
:10283000DDE90012031D3B600068C0E900120CE0F6
:1028400002A869462CF03EFF1598C00705D13868EC
:10285000029A011D3960006802604046F0E60000FF
:1028600002FCFFFF0000F07F0000F03F2DE9FF4F6A
:1028700092461D4685B04FF00041DDE9124BDDE97F
:1028800014727F1E01EA4B50414940F0FF4940EA73
:102890000108002122F020004928049102D04E288E
:1028A00028D04CE03BA0012607C88DE80700A969A5
:1028B0000698641C88477F1E014606D41DF8060052
:1028C00018B121F0200181420BD0E96906988847B0
:1028D000032E34D0082E32D06FF0010009B0BDE8CD
:1028E000F08F761C032E01D0082EE0D1601CCAF8B0
:1028F0000000DCE7A9690698641C88477F1E2AD47B
:1029000020F02000412826D1A9690698641C884738
:102910007F1E20D420F020004E281CD1A9690698E3
:10292000641C88477F1E48F4002849F48009CAF8CF
:10293000004001D4282806D0E969069888475FEA54
:10294000CB7012D022E0A9690698641C88477F1ECC
:1029500001D4002803DAE96906988847BCE72928EA
:10296000F1D1641CCAF80040E9E71BF0240F07D03E
:1029700028680499031D2B600068C0E9001805E071
:102980002868021D2A600068C0F800902046A5E76C
:102990000000F07F494E46494E495459000000005E
:1029A000B2F120030AD5C2F1200301FA02F120FAA4
:1029B00003F300FA02F041EA0301704700FA03F161
:1029C0004FF0000070475FEA400C08BF91F0000F25
:1029D0004FEA8C234FEAC12243EA51514FEA1C507F
:1029E00018BF00F5F0404FEA300018BF41F0004139
:1029F0005FEA6C5C00F02980BCF1FF3F08BF40F04B
:102A000080407047130C06BF12044FF0100C4FF0BB
:102A1000000C130E04BF12020CF1080C130F04BFBC
:102A200012010CF1040C930F04BF92000CF1020C84
:102A3000D30F04BF52000CF1010C11464FF00002FD
:102A4000A0F11F00A0EB0C00704711F0004F08BF71
:102A5000704731F000413FF4D5AF0B0C06BF0904BD
:102A60004FF0100C4FF0000C0B0E04BF09020CF1DC
:102A7000080C0B0F04BF09010CF1040C8B0F04BFF1
:102A800089000CF1020CCB0F04BF49000CF1010CC2
:102A9000CCF12003A0EB0C0022FA03F302FA0CF2B3
:102AA00041EA030100F10100704720F07F4C80EA09
:102AB000030023F07F47ACEB070303F57C5300F0E2
:102AC000004003F1FF032DE980494FEA154B09B49B
:102AD0004FEA144325EA0B4E24EA03480FF204267A
:102AE00006EB132749083E785FEA320203FB0667CC
:102AF000C7F5000707FB06F64FEA54374FEAD646FC
:102B000006F1020607FB066CCCF1005C4FEA1C479D
:102B10002CEA074C07FB06F40CFB06F504EB154604
:102B20004FEA961634BF00204FF000404FEAD137ED
:102B300006FB07FC4FEA1C4C0CFB0BF7D21B03FBFC
:102B40000CF761EB07010CFB0EF7B0EB074072EBE3
:102B500017420CFB08F734BFA2EB0742B2EB074267
:102B600061EB17414FEA0C444FEA910706FB07FC63
:102B70004FEA1C4C0CFB0BF7B0EBC74072EB573223
:102B800003FB0CF734BFA2EBC742B2EBC74261EBC9
:102B900057310CFB0EF7B0EBC70072EB57720CFB12
:102BA00008F734BFA2EBC702B2EBC70261EB577163
:102BB000039F4FEA816141EA921104EBCC044FEA92
:102BC000D1374FEA826206FB07FC42EA90124FEAD5
:102BD00080604FEA1C4C0CFB0BF7D21B03FB0CF77D
:102BE00061EB07010CFB0EF7B0EB074072EB1742ED
:102BF0000CFB08F734BFA2EB0742B2EB074261EBD4
:102C000017414FEA8C554FEA910704EB9C2406FBD1
:102C100007FC4FEA1C4C0CFB0BF7B0EBC74072EB08
:102C2000573203FB0CF734BFA2EBC742B2EBC742EB
:102C300061EB57310CFB0EF7B0EBC70072EB57722C
:102C40000CFB08F734BFA2EBC702B2EBC70261EB83
:102C5000577115EB4C254FEA816141EA92114FEA19
:102C600082624FEAD13742EA901206FB07FC44F138
:102C700000044FEA80604FEA1C4C0CFB0BF7D21BA0
:102C800003FB0CF761EB07010CFB0EF7B0EB074001
:102C900072EB17420CFB08F734BFA2EB0742B2EB12
:102CA000074261EB174115EB1C154FEA813141EAF0
:102CB00092414FEA823242EA90424FEA80304FEA34
:102CC0000C7644F1000448EA03434EEA0B484FF007
:102CD000000EB2EB080C71EB030724BF62463946C5
:102CE0004EEB0E0E4FF0000B0018524149414BEBDA
:102CF0000B0BB2EB080C71EB03077BF1000B24BF4D
:102D0000624639464EEB0E0E4FF0000B0018524152
:102D100049414BEB0B0BB2EB080C71EB03077BF15A
:102D2000000B24BF624639464EEB0E0E51EA0207F5
:102D300018BF46F0010616EB0E7655F1000254F16D
:102D4000000103D5BDE88901BDE80088BDE889011F
:102D5000BDE80048B619524141EB0101A3F101035E
:102D6000704780807F7E7D7C7B7A797877767675F8
:102D70007473727171706F6E6E6D6C6C6B6A6A6970
:102D80006868676666656464636362616160605F0A
:102D90005F5E5E5D5D5C5C5B5B5A5A595958585783
:102DA00057565655555554545353525252515150EB
:102DB00050504F4F4F4E4E4D4D4D4C4C4C4B4B4B3E
:102DC0004A4A4A4949494848484747474746464684
:102DD00045454544444444434343434242424241BF
:102DE0004141000046EA0646A3F570534FEA1646F5
:102DF00046EA42564FEAD22242EA415210B54FEA21
:102E0000D121A3F1010300F02FF820F0004000F1E0
:102E1000020C00F0004701EB00501146BCF5006FBA
:102E200040EA070000D210BDBAF1000F0AD01CB56D
:102E300003B44FF004004FF004014FF000000FBC4A
:102E4000BDE810404FF00001BBF1010FB9BF0448CD
:102E50004FF0FF310348002140EA070010BD00BFDA
:102E6000FFFFEF7F0000F07F002B9C4630D47700FF
:102E70002BD01CB54FEA370703B44FF010004FF0CA
:102E80001001BAF1000F06D0BCF1000FDCBF40F01A
:102E9000080040F008014FF000000FBCBDE81040F2
:102EA0000BF1010BBBF1010F08BF5FEA170722BF4F
:102EB00012F1010211F101014FF0004143F1000351
:102EC00000F0004043EA00007047F9D35708D0E70C
:102ED00046EA064613F1400F4FEA16461FDD13F18E
:102EE000200FDFBF16430A46002120335B42BED0CD
:102EF000C3F1200746EA064602FA07F74FEA1646EC
:102F000046EA0706C3F1200722FA03F201FA07F79F
:102F100021FA03F14FF0000342EA0702A7E746EA6D
:102F2000020646EA06464FEA164646EA0106BCBFD6
:102F300046EA0646360C4FF000034FF000024FF011
:102F4000000194E72DE9804C9A46934670B491E8CD
:102F5000380007C831EA400C48BF34EA430C03D5B7
:102F6000FFF7A3FDFFF780FFF0BCBDE8008C2DE963
:102F7000804C9A46934670B491E8380007C831EA0D
:102F8000400C48BF34EA430C03D5FFF78EFDFFF732
:102F900029FFF0BCBDE8008C2DE9804C9A46934691
:102FA00070B491E8380007C810F0804F08BF13F0E4
:102FB000804F03D100F01AF8FFF756FFF0BCBDE8D0
:102FC000008C2DE9804C9A46934670B491E8380005
:102FD00007C810F0804F08BF13F0804F03D100F0F6
:102FE00005F8FFF7FFFEF0BCBDE8008C20F07F473E
:102FF00080EA030023F07F4C07EB0C03A3F57C531E
:1030000000F00040A3F1FE0392F0000F00F0B38047
:1030100095F0000F00F077802DE901494FEA11404B
:103020004FEA144621EA004800FB06FC24EA064762
:1030300008FB06F607FB08F800FB07F718EB064845
:103040004CEB164C4FEA124B18EB07484FEA15466B
:103050004CEB174022EA0B4E0BFB06FC25EA064719
:103060000EFB06F607FB0EFE0BFB07F71EEB064EEC
:103070004CEB164C4FF000061EEB074E4CEB174B7B
:1030800018EB0B0840F1000018EB0E0B58EB000892
:1030900040F100008F1A4FF000013CBFC943661B8E
:1030A00014BFB5EB040C00213CBFC943F61B4FEA2B
:1030B00017444EEA8E0E27EA04454FEA1C4704FBEC
:1030C00007622CEA074C05FB07F70CFB05F604FB2F
:1030D0000CFC16EB074642EB174216EB0C4642EB94
:1030E0001C421BEB060658EB0202414146EA9E06D3
:1030F00001D5BDE80189B619524141EB0101A3F1A7
:103100000103BDE801894FEA14454FEA114724EA5B
:10311000054621EA074C05FB07F406FB07F70CFB05
:1031200006F105FB0CFC11EB074144EB17444FEA99
:10313000124711EB0C4144EB1C4422EA074C05FBFF
:1031400007F206FB07F70CFB06F605FB0CFC16EB7B
:10315000074642EB174216EB0C4642EB1C456A1839
:1031600054F1000148BF7047B619524141EB0101CB
:10317000A3F10103704795F0000F37D04FEA1142D9
:103180004FEA144721EA024624EA074C02FB07F102
:1031900006FB07F70CFB06F402FB0CFC14EB0744E0
:1031A00041EB17414FEA154714EB0C4441EB1C412E
:1031B00025EA074C02FB07F506FB07F70CFB06F6B2
:1031C00002FB0CFC16EB074645EB174516EB0C46CD
:1031D00045EB1C42121951F1000148BF7047B61966
:1031E000524141EB0101A3F1010370474FEA14453D
:1031F0004FEA114724EA054621EA074C05FB07F18F
:1032000006FB07F70CFB06F24FF0000605FB0CFC73
:1032100012EB074241EB174112EB0C4251EB1C4100
:1032200048BF7047921841EB0101A3F101037047B9
:1032300010B5044604220021204627F047F910BDAE
:1032400010B50446002120461BF018F810BD10B53B
:1032500004460021204626F0A0FA10BD10B5024811
:1032600000F0FFFC10BD0000381D002055494A68E1
:1032700022F440324A604A6843681A434A6002684E
:10328000526822F4807203685A60026853680269C7
:1032900043EA022203685A600268526822F04072D0
:1032A00003685A600268526883681A4303685A6068
:1032B0000268926822F4006203689A600268926869
:1032C000C3681A4303689A603F4B826A9A4218D0D7
:1032D0000268926822F0706203689A6002689268DD
:1032E000836A1A4303689A600268926822F0405227
:1032F00003689A6002689268C36A1A4303689A6016
:103300000BE00268926822F0706203689A600268BB
:10331000926822F0405203689A600268926822F034
:10332000020203689A6002689368027E43EA4202DE
:1033300003689A602022125CA2B10268526842F4CB
:10334000006203685A600268526822F460420368AF
:103350005A6002685368426A521E43EA4232036866
:103360005A6005E00268526822F4006203685A60FD
:103370000268D26A22F470020368DA620268D36AD1
:10338000828B521E43EA02520368DA620268926834
:1033900022F4007203689A600268936890F8302003
:1033A00043EA422203689A600268926822F48062CB
:1033B00003689A6002689368426943EA822203685C
:1033C0009A607047002301400100000F01E012F0F5
:1033D00049FCFCE770B50446A56B284600F043FFA6
:1033E0000120287170BD70B50446A56B284600F019
:1033F00006FF0120287170BD70B50546AC6B2069D1
:1034000040F004002061204600F041FF01202071BF
:1034100070BD70B50546AC6B206940F004002061BA
:10342000204600F0EEFE0120207170BD70B504460C
:10343000A56B284600F018FF70BD70B50446A56B5B
:10344000284600F0DDFE70BD10B50249886801F025
:10345000BBF810BD30010020014608781038182351
:10346000B0FBF3F20848805CC865032A05D90868F8
:103470006FF30900001D886503E008686FF3090019
:103480008865886D7047000040540508014600209B
:103490008A6A8B69CBB932B1012A0DD0022A03D0D6
:1034A000032A10D10EE000BFCB6A03F08073B3F1A2
:1034B000807F00D1012007E0CB6AB3F1C07F00D14B
:1034C000012001E000E000BF34E08B69B3F5005F4C
:1034D0001AD132B1012A07D0022A03D0032A11D10E
:1034E0000AE000BF01200EE0CB6A03F08073B3F165
:1034F000807F00D1012006E0CB6AB3F1C07F00D10C
:10350000012000E000BF15E032B1012A05D0022AF7
:1035100004D0032A0CD103E000BF00BF012008E063
:10352000CB6A03F08073B3F1807F00D1012000E00B
:1035300000BF00BF704730B50468246824F48024BD
:1035400005682C60046863608468402C04D10468BA
:10355000A2600468E16003E00468A1600468E260BE
:1035600030BD0146002200BF05E0002301F2844087
:1035700040F82230521C102AF7D3002204E0002326
:1035800001F507708354521CB2F5007FF7D3002079
:1035900008704870012088700020C1F8C40401231D
:1035A0000B7640238B7100234B7681F81C3401236A
:1035B00081F81D34002381F81F3481F81E347047D0
:1035C000704710B54FF4007001F0C6FA10BD30B569
:1035D00004460D4600222946204600F001F830BD81
:1035E000F0B50346012500241148407A01281CDA71
:1035F00000200F4E767A0E4FB8553846467A001D99
:1036000040F82630001F467A083082553E46707AD0
:10361000461C7E72044604F1300008703A2048705F
:103620002F2088700020C87000252846F0BD0000BB
:103630001C12002010B5002201B909E0012901D1B6
:103640000A0205E0022901D10A0201E04FF44072AA
:103650000B2800D9001D0E4B1B6823F440730C4C43
:10366000236023461B681343236023461B6823F013
:10367000F803236023461B68022444EAC004234362
:10368000034C236023461B6843F48033236010BD42
:10369000103C02401C48006800F40070B0B11A48A9
:1036A000006820F400701849086000BF08460068F0
:1036B00040F4006008600846006820F4006008607C
:1036C00000BF0846006840F4007008600E480068BB
:1036D00000F48060B0B10C48006820F480600A49B2
:1036E000086000BF0846006840F480500860084643
:1036F000006820F48050086000BF0846006840F46D
:103700008060086070470000003C0240134A126865
:1037100022F44072114B1A60032906D11A4612682E
:10372000DB131A430D4B1A600EE0012906D10B4A38
:10373000126842F00402094B1A6005E0074A126859
:1037400042F40042054B1A60044A12684FF4803379
:1037500043EA00231A43014B1A607047103C0240B1
:10376000074A126822F44072054B1A601A46126822
:103770001A601A46126842F001021A60017070471E
:10378000103C024010B50D49096821F440710B4C02
:1037900021602146096841F4407121602146096891
:1037A00041F001012160026000BF00BF00BFBFF314
:1037B0006F8F00BF00BF00BF436010BD103C0240D0
:1037C000084A126822F44072064B1A601A461268C0
:1037D00042F480721A601A46126842F001021A60BE
:1037E00001807047103C0240084A126822F440727F
:1037F000064B1A601A46126842F400721A601A46A2
:10380000126842F001021A6001607047103C0240E9
:103810002A48006800F0100040B12948C06940F013
:1038200010002749C8611020244908602348006817
:1038300000F0200040B12248C06940F00800204953
:10384000C86120201D4908601C48006800F0400045
:1038500040B11B48C06940F004001949C8614020CC
:10386000164908601548006800F0800040B114480F
:10387000C06940F002001249C86180200F49086009
:103880000E48006800F4807048B10D48C06940F0EF
:1038900001000B49C8614FF480700849086007486F
:1038A000006800F0020040B10548C06940F0200007
:1038B0000349C86102200149086070470C3C02407E
:1038C0002812002070B50446002500201449C86164
:1038D00001F066FA054609E0601C38B124B101F038
:1038E0005FFA401BA04201D9032070BD0D4800685B
:1038F00000F480300028EFD10A48006800F0010091
:1039000010B10120074908600648006800F4F9700A
:1039100018B1FFF77DFF0120E7E70020E5E7000091
:10392000281200200C3C024070B50446B3F5804FCD
:1039300013D1D1E9000540EA05108D6840EA052061
:103940008D6928438D8940EA054054F82250064E7F
:103950003540284344F8220003E06FF0704044F8FB
:103960002200002070BD00000000F0CF70B50246BC
:10397000086852F8200020F001000E6842F8260086
:103980008868082801D1402500E0002548682843C0
:103990008E683043CE6830430E6930434E69304301
:1039A000CE6930430E6A30434E6A30438E6A3043EC
:1039B000CE6A30430E6B40EA060388690343486BC6
:1039C0000343C86B03430E4C44F4806444F48014F6
:1039D00044F4E024086852F82000A04318430E681D
:1039E00042F82600486BB0F5801F07D1086828B15F
:1039F000106820F480104E6B30431060002070BDC2
:103A00007FFB080030B50346D1E9000540EA051008
:103A10008D6840EA05208D8940EA0545088A401EE8
:103A200045EA0055087D801E45EA00608D692843FF
:103A3000551C53F8255005F040452843551C43F8C4
:103A40002500186800F48010B0F5801F0BD158686D
:103A500020F47004088A401E44EA0054586820F498
:103A6000700020435860002030BD704738B50246D2
:103A70000020009000BF92F83C00012801D10220F4
:103A800038BD012082F83C0000BF0868092816D91B
:103A90001068C0680C780A3C04EB44050724AC406D
:103AA000A0431468E0600C780A3C04EB4404886886
:103AB000A0401468E46820431468E06013E01068D4
:103AC00000690C7804EB44050724AC40A04314685B
:103AD00020610C7804EB44048868A04014682469D1
:103AE0002043146820614868072817D21068406B8B
:103AF0000C79641E04EB84051F24AC40A0431468B9
:103B00006063088880B20C79641E04EB8404A040D2
:103B10001468646B20431468606331E048680D28C2
:103B200017D21068006B0C79E41F04EB84051F2486
:103B3000AC40A04314682063088880B20C79E41F6D
:103B400004EB8404A0401468246B204314682063B1
:103B500016E01068C06A0C790D3C04EB84051F2444
:103B6000AC40A0431468E062088880B20C790D3C38
:103B700004EB8404A0401468E46A20431468E06203
:103B80001E4B1F4C1068A0420AD10868122807D1AA
:103B9000586820F400005860586840F4800058606D
:103BA000174C1068A04222D1164C0868A04202D0DF
:103BB000086811281BD1586820F4800058605868A4
:103BC00040F4000058600F4C0868A0420FD10E4826
:103BD00000680E4CB0FBF4F000EB80004000009059
:103BE00002E00098401E009000980028F9D100BF24
:103BF000002082F83C0000BF00BF41E700230140E5
:103C000000200140120000100001002040420F007F
:103C100070B5044621F040FB05460C4890F8BA0008
:103C2000042812DC0CF0D6F800BF21F035FB401B55
:103C30000528FAD30A21064800F0FAF8204600F0D9
:103C40000CF8044908800AF01FFC70BDB4F3022090
:103C5000381D002024010020704701460868C06C10
:103C600070472DE9F04104460025002620680768CA
:103C70002068D0F8048007F0020508F0200695B30C
:103C80008EB3206C00F0100018B9206C40F4007066
:103C900020642068806800F04050E8B9207ED8B9E0
:103CA0002068C06A00F4700020B12068806800F4C9
:103CB000806088B92068406820F020002168486052
:103CC000206C20F480702064206C00F4805018B9BF
:103CD000206C40F0010020642046FFF799FF6FF050
:103CE00012002168086007F0040508F08006E5B3BB
:103CF000DEB3206C00F0100018B9206C40F40050C6
:103D000020642068806800F4401038BB2068806B15
:103D100000F4401020B12068806800F48060E8B9A9
:103D20002068406800F48060C0B92068806800F0B6
:103D3000405098B9207E88B92068406820F0800003
:103D400021684860206C20F480502064206C00F4CE
:103D5000807018B9206C40F0010020642046FFF705
:103D600084FE6FF00C002168086007F0010508F080
:103D7000400685B17EB12068006800F0010050B1B6
:103D8000206C40F480302064204600F04FF86FF043
:103D900001002168086007F0200508F080667DB109
:103DA00076B1606C40F0020060646FF02000216822
:103DB00008602046FFF750FF6FF020002168086080
:103DC000BDE8F08170B5044600250CB9012070BD36
:103DD0001549A06A884200D000BF206C30B9204647
:103DE00000F025F80020606484F83C00206C00F0AE
:103DF000100088B9206C20F4885040F00200206444
:103E00002046FFF733FA00206064206C20F00200A7
:103E100040F00100206400E0012500BF002084F88C
:103E20003C0000BF2846D2E70100000F70477047F2
:103E300070B504460D4600262068806800F4806056
:103E4000B0F5806F11D12068806800F48070B0F503
:103E5000807F0AD1206C40F02000206400BF002049
:103E600084F83C0000BF012070BD00F099FF0646B9
:103E700018E0681CB0B125B100F092FF801BA84289
:103E800010D92068006800F0020002280AD0206CD7
:103E900040F00400206400BF002084F83C0000BF14
:103EA0000320E1E72068006800F002000228E0D16A
:103EB0006FF0120021680860206C40F400702064EC
:103EC0002068806800F04050B8B9207EA8B920680A
:103ED000C06A00F4700020B12068806800F480603F
:103EE00058B9206C20F480702064206C00F480505D
:103EF00018B9206C40F0010020640020B4E70000F5
:103F000008B501460020009000BF91F83C00012850
:103F100001D1022008BD012081F83C0000BF0868E3
:103F2000806800F00100A0B90868806840F00100D6
:103F30000B6898603F4800683F4BB0FBF3F000EB24
:103F40004000009002E00098401E00900098002879
:103F5000F9D10868806800F00100002860D0086C82
:103F600040F20163984340F4807008640868406838
:103F700000F4806028B1086C20F4005040F48050B8
:103F80000864086C00F48050B0F5805F04D1486C80
:103F900020F00600486401E00020486400BF0020D3
:103FA00081F83C0000BF254A6FF022000B681860C2
:103FB000506800F01F0018BB214B0868984213D0CE
:103FC000204B0868984204D1101D006800F01F00C3
:103FD00050B11D4B086898422AD11848001D00684E
:103FE00000F01F00102823D20868806800F04050BD
:103FF000F0B90868806840F080400B68986017E06E
:104000000F4B0868984213D10868806800F0405050
:1040100070B90868806840F080400B68986007E0DD
:10402000086C40F010000864486C40F001004864DF
:1040300000206FE70001002040420F0000230140F4
:1040400000200140002101400022014008B5014646
:104050000020009000BF91F83C00012801D102200F
:1040600008BD012081F83C0000BF0868806800F0AE
:104070000100A0B90868806840F001000B689860F2
:1040800042480068424BB0FBF3F000EB4000009068
:1040900002E00098401E009000980028F9D10868BE
:1040A000806800F00100002866D0086C40F20163CF
:1040B000984340F4807008640868406800F48060A9
:1040C00028B1086C20F4005040F480500864086C5B
:1040D00000F48050B0F5805F04D1486C20F00600F9
:1040E000486401E00020486400BF002081F83C00E3
:1040F00000BF284A6FF022000B681860086840680B
:10410000254B18430B685860506800F01F0018BB1F
:10411000224B0868984213D0214B0868984204D17A
:10412000101D006800F01F0050B11E4B0868984237
:104130002AD11848001D006800F01F00102823D263
:104140000868806800F04050F0B90868806840F066
:1041500080400B68986017E0104B0868984213D1B4
:104160000868806800F0405070B90868806840F0C6
:1041700080400B68986007E0086C40F0100008640D
:10418000486C40F001004864002069E7000100200D
:1041900040420F00002301402000000400200140A5
:1041A000002101400022014070B503460C4600206A
:1041B00002255D711D68AD6845F001051E68B5609A
:1041C000002104E054F821501E683560491C9142DA
:1041D000F8D31D68286801255D7170BD10B50446CF
:1041E0000CB9012010BD607920B900202071204653
:1041F00000F004F8012060710020F3E77047704779
:1042000070477047F0B5034600BF5879012801D1C7
:104210000220F0BD0120587100BF022018711868FB
:10422000046802F0100640F6FE70B0408443D1E905
:10423000000640EA060502F0100005FA00F004430B
:10424000186804601868006802F01007C026BE40B5
:10425000B0431E6830600120187100BF0020587103
:1042600000BF00BFD5E77047704710B504460CB9D2
:10427000012010BD02202071204600F01DF8002012
:104280002061207100BF607100BF00BFF1E770477F
:1042900010B504460CB9012010BD207920B90020CA
:1042A0006071204600F009F8022020710020206192
:1042B000012020710020EFE77047704738B50446B1
:1042C000002000902068009029B902F10800009DAC
:1042D0002844009004E002F11400009D284400905E
:1042E00000980360002038BD10B5024600BF507929
:1042F000012801D1022010BD0120507100BF022011
:1043000010711068006801F010040123A3401843E5
:104310001368186061B91068006800F03C003C2820
:1043200016D11068406840F00100136858600FE033
:104330001068006800F4701301F010043C20A040E5
:10434000834205D11068406840F00200136858604D
:104350000120107100BF0020507100BF00BFCAE7EC
:104360002DE9F04704460D4616469946089F4FF042
:104370000008C24600BF6079012802D10220BDE8D2
:10438000F0870120607100BF0220207115BB3C48FE
:10439000A168C8633B48A16808643B48A168C86439
:1043A0002068006840F480502168086027B1042F1D
:1043B00006D0082F0CD107E0206800F1080A08E0B9
:1043C000206800F10C0A04E0206800F1100A00E007
:1043D00000BF22E02D48E168C8632D48E168086409
:1043E0002C48E168C8642068006840F0805021686B
:1043F000086027B1042F06D0082F0CD107E02068F1
:1044000000F1140A08E0206800F1180A04E02068AE
:1044100000F11C0A00E000BF00BF6DB92068006811
:1044200040F40050216808604B4652463146A0686F
:1044300000F060FA80460CE02068006840F0005010
:10444000216808604B4652463146E06800F052FA57
:10445000804600BF0020607100BFB8F1000F09D195
:104460002068006805F0100201219140084321688E
:10447000086003E0206940F00400206140467EE7C8
:10448000D53302082D340208F9330208E733020855
:104490003B3402081334020870B504460D46206808
:1044A000006805F010024FF4805191408843216864
:1044B00008602068006805F01002012191408843DF
:1044C000216808604DB9A06800F014F82068006801
:1044D00020F400502168086008E0E06800F00AF865
:1044E0002068006820F000502168086001202071D9
:1044F000002070BD70B50446A56D00F051FC064665
:1045000094F83500022808D08020606500BF0020A4
:1045100084F8340000BF012070BD2068006820F0DE
:104520001600216808602068406920F0800021683A
:104530004861206C08B9A06C28B12068006820F0A0
:104540000800216808602068006820F001002168E8
:10455000086010E000F024FC801B05280BD9202007
:104560006065032084F8350000BF002084F8340023
:1045700000BF0320D0E72068006800F00100002899
:10458000E8D194F85C103F208840A860012084F8AE
:10459000350000BF002084F8340000BF00BFBBE737
:1045A000014691F83500022803D08020486501209B
:1045B0007047052081F835000868006820F0010088
:1045C0000A6810600020F3E7F8B504460020009068
:1045D0008C4800684FF41651B0FBF1F7A56D2E68BA
:1045E00094F85C1008208840304098B1206800683A
:1045F00000F0040070B12068006820F00400216819
:10460000086094F85C1008208840A860606D40F055
:104610000100606594F85C1001208840304068B16A
:104620002068406900F0800040B194F85C100120DF
:104630008840A860606D40F00200606594F85C10EE
:1046400004208840304068B12068006800F0020013
:1046500040B194F85C1004208840A860606D40F080
:104660000400606594F85C1010208840304078B3F6
:104670002068006800F0080050B394F85C10102027
:104680008840A8602068006800F4802080B120681D
:10469000006800F4002028B9206CC8B12046216CC5
:1046A000884715E0A06C98B12046A16C88470FE0C0
:1046B0002068006800F4807028B92068006820F045
:1046C000080021680860206C10B12046216C8847E2
:1046D00094F85C10202088403040002865D0206885
:1046E000006800F0100000285FD094F85C102020D3
:1046F0008840A86094F83500052828D12068006813
:1047000020F01600216808602068406920F08000D1
:1047100021684861206C08B9A06C28B12068006845
:1047200020F008002168086094F85C103F20884061
:10473000A860012084F8350000BF002084F8340010
:1047400000BF206D10B12046216D8847F8BD20685C
:10475000006800F4802080B12068006800F4002028
:1047600028B9606C10B12046616C88471DE0E06B91
:10477000D8B12046E16B884717E02068006800F454
:10478000807068B92068006820F010002168086017
:10479000012084F8350000BF002084F8340000BFF9
:1047A000E06B10B12046E16B8847606D38B3606DF7
:1047B00000F00100F0B1052084F8350020680068A1
:1047C00020F001002168086000BF0098401C0090A4
:1047D000B84200D905E02068006800F00100002818
:1047E000F3D100BF012084F8350000BF002084F819
:1047F000340000BFE06C10B12046E16C884700BF78
:10480000A4E70000000100202DE9F0410446002546
:1048100000F0C6FA074614B90120BDE8F081606ACD
:1048200000B100BF022084F8350000BF002084F8EA
:10483000340000BF2068006820F001002168086093
:104840000AE000F0ADFAC01B052805D920206065FC
:10485000032084F83500E0E72068006800F00100DC
:104860000028EED12068056821480540D4E90101FF
:104870000843E16808432169084361690843A16965
:104880000843E1690843216A08430543606A042834
:1048900003D1D4E90B010843054320680560206873
:1048A000456925F00705606A0543606A04280DD153
:1048B000A06A0543E06A48B12046FEF7E7FD28B14B
:1048C00040206065012084F83500A6E72068456136
:1048D0002046FEF7C1FD064694F85C103F20884054
:1048E000B06000206065012084F83500002094E766
:1048F0003F8010F02DE9F04704460D4616461F464E
:104900004FF00008D4F8589000BF94F83400012804
:1049100002D10220BDE8F087012084F8340000BFF6
:1049200094F83500012825D1022084F835000020B4
:1049300060653B46324629462046FEF7FCFD94F86A
:104940005C103F208840C9F808002068006840F0EB
:10495000160021680860206C28B12068006840F0CB
:104960000800216808602068006840F001002168A4
:10497000086006E000BF002084F8340000BF4FF05C
:1049800002084046C6E7000070B5044600F008FA89
:1049900006462546681C10B104480078054400BF4F
:1049A00000F0FEF9801BA842FAD370BD1000002071
:1049B0002DE9F04104460E460127002500BF264898
:1049C000007E012802D10220BDE8F08101202249A9
:1049D000087600BF4CF25030FEF774FF0746002FF8
:1049E00032D1401E30602068012810D1207C6168DF
:1049F000FEF78CFE4CF25030FEF764FF0746174876
:104A0000006848F204018843144908601AE0A56868
:104A100012E0217C2846FEF70DFE4CF25030FEF7E6
:104A200051FF07460D48006820F0FA000B49086066
:104A30000FB1356005E06D1CD4E902100844A842AE
:104A4000E7D800BFFEF726FE00BF00200249087627
:104A500000BF3846B8E7000028120020103C024092
:104A60000348006840F0004001490860002070479A
:104A7000103C02402DE9F04106460F4614461D4603
:104A80004FF0010800BF1F48007E012802D102201C
:104A9000BDE8F08101201B49087600BF4CF2503080
:104AA000FEF710FF8046B8F1000F23D126B9E1B21E
:104AB0003846FEF755FE12E0012E04D1A1B2384669
:104AC000FEF77EFE0BE0022E04D121463846FEF7AB
:104AD0008BFE04E022462B463846FEF753FE4CF28E
:104AE0005030FEF7EFFE80460748006820F00100D6
:104AF0000549086000BF00200249087600BF404613
:104B0000C6E7000028120020103C0240002009499E
:104B1000096801F0004159B10749064A0C3A116091
:104B2000064911600349096801F0004101B1012003
:104B300070470000103C024023016745AB89EFCD70
:104B400010B5044603480088844201D122F03EFE9D
:104B500010BD00004655050810B50446044800681D
:104B6000204020B1024804602046FFF7E9FF10BD55
:104B7000143C0140F8B502460B46002500240020F5
:104B80000021E0E0012606FA01F51E6806EA0504A8
:104B9000AC4274D11E7906F00306012E04D01E79B2
:104BA00006F00306022E13D190684F000326BE4084
:104BB000B0434F00DE68BE4030439060506801262D
:104BC0008E40B0431E79C6F300168E4030435060CD
:104BD0001E7906F00306032E09D0D0684F00032685
:104BE000BE40B0434F009E68BE403043D0601E7947
:104BF00006F00306022E13D1CF0802F1200656F864
:104C000027004E07F70E0F26BE40B0434F07FF0E9A
:104C10001E69BE403043CF0802F1200646F8270047
:104C200010684F000326BE40B0431E7906F003060D
:104C30004F00BE40304310605E6806F44036002EE0
:104C40001DD000BF00260096414E366846F48046CF
:104C50003F4F3E603E46366806F48046009600BFF1
:104C600000BF3C4E8F0856F827008E07370F0F26DF
:104C7000BE40B043384EB24202D100262EE061E081
:104C8000364EB24201D1012628E0354EB24201D162
:104C9000022623E0334EB24201D103261EE0324EFB
:104CA000B24201D1042619E0304EB24201D10526AC
:104CB00014E02F4EB24201D106260FE02D4EB24233
:104CC00001D107260AE02C4EB24201D1082605E0A8
:104CD0002A4EB24201D1092600E00A268F073F0F73
:104CE000BE4030431B4E8F0846F82700244E3068E4
:104CF000A0435E6806F4801606B12043204E306063
:104D0000361D3068A0435E6806F4001606B12043E5
:104D10001B4E361D30601A4E361F3068A0435E6849
:104D200006F4003606B12043154E361F3060361F9C
:104D30003068A0435E6806F4803606B12043104E0A
:104D4000083E3060491C1029FFF41CAFF8BD00007C
:104D5000443802400838014000000240000402408C
:104D600000080240000C0240001002400014024003
:104D700000180240001C02400020024000240240B3
:104D8000083C0140024613690B400BB1012000E0D2
:104D9000002070470AB1816101E00B048361704714
:104DA00001480068704700000800002010B5044664
:104DB000D4F8000306F00DFA10BD10B50446D4F87F
:104DC000000306F011FA10BD10B50446206808F083
:104DD00029FE10BD10B50446206808F03DFE10BD48
:104DE000024601EB410000EBC10302F1380000EB89
:104DF000830090F828007047024601EB410000EB69
:104E0000C10302F1380000EB83008069704770B580
:104E100004460D46002600BF94F8F802012801D18F
:104E2000022070BD012084F8F80200BF29462068E6
:104E300008F023FE00BF002084F8F80200BF3046CF
:104E4000EFE72DE9FE4F04460D4616461F46DDE905
:104E50000D9ADDF8308000BF94F8F802012802D1E5
:104E60000220BDE8FE8F012084F8F80200BF002177
:104E700005EB450000EBC50204F1380000EB8200B1
:104E8000417105EB450000EBC50104F1380000F865
:104E9000217005EB450000EBC50104F1380000EB83
:104EA0008100A0F808A005EB450000EBC50104F166
:104EB000380000EB8100457005EB450000EBC501B3
:104EC00004F1380000EB810080F8079006F07F01C4
:104ED00005EB450000EBC50204F1380000EB820051
:104EE000817006F0800080280AD1012105EB450081
:104EF00000EBC50204F1380000EB8200C17009E04C
:104F0000002105EB450000EBC50204F1380000EB81
:104F10008200C17005EB450000EBC50104F13800CB
:104F200000EB810080F804808DE800073B463246A4
:104F30002946206808F05AFE834600BF002084F806
:104F4000F80200BF58468CE770472DE9F05F044631
:104F50000D4616461F46DDE90C9BDDE90A8A05EB86
:104F6000450000EBC50104F1380000EB8100C6707C
:104F700005EB450000EBC50104F1380000EB8100B2
:104F8000C771B8F1000F14D1032105EB450000EB08
:104F9000C50204F1380000EB8200817205EB450088
:104FA00000EBC50104F1380000EB810080F805B08A
:104FB00009E0022105EB450000EBC50204F13800D1
:104FC00000EB8200817237B1012F76D0022F33D0EF
:104FD000032F73D173E0B8F1010F2CD106BBB9F1E7
:104FE000000F09D1012105EB450000EBC50204F1DA
:104FF000380000EB8200417705EB450000EBC5016E
:1050000004F1380000EB8100407F50B9002105EB2E
:10501000450000EBC50204F1380000EB820081720C
:1050200009E0022105EB450000EBC50204F1380060
:1050300000EB820081728FE0FEB905EB450000EBCA
:10504000C50104F1380000EB8100407F50B9002118
:1050500005EB450000EBC50204F1380000EB8200CF
:10506000817229E0022105EB450000EBC50204F145
:10507000380000EB820081721EE005EB450000EB7A
:10508000C50104F1380000EB8100007F50B9002118
:1050900005EB450000EBC50204F1380000EB82008F
:1050A000817209E0022105EB450000EBC50204F125
:1050B000380000EB820081724EE041E04BE0FEB927
:1050C00005EB450000EBC50104F1380000EB810061
:1050D000407F50B9002105EB450000EBC50204F10B
:1050E000380000EB8200817229E0022105EB4500C7
:1050F00000EBC50204F1380000EB820081721EE073
:1051000005EB450000EBC50104F1380000EB810020
:10511000007F50B9002105EB450000EBC50204F10A
:10512000380000EB8200817209E0022105EB4500A6
:1051300000EBC50204F1380000EB820081720BE045
:10514000002105EB450000EBC50204F1380000EB3F
:105150008200817200E000BF00BF05EB450000EB5C
:10516000C50104F1380000EB8100C0F80CA005EB8C
:10517000450000EBC50104F1380000EB8100C0F8E8
:105180001490002105EB450000EBC50204F1380046
:1051900000EB820080F8281005EB450000EBC5020B
:1051A00004F1380000EB8200816105EB450000EB63
:1051B000C50104F1380000EB81004570002105EBCA
:1051C000450000EBC50204F1380000EB820080F8D6
:1051D0002910227C05EB450303EBC50C04F13803D1
:1051E00003EB8C01206808F0E9FDBDE8F09F2DE994
:1051F000F04104462768B846206808F039FC0128C9
:105200007DD1206808F09CFF08B9BDE8F0812068D6
:1052100008F096FF00F40010B0F5001F03D14FF422
:10522000001021684861206808F08AFF00F48010AF
:10523000B0F5801F03D14FF48010216848612068C9
:1052400008F07EFF00F08060B0F1806F03D14FF076
:10525000806021684861206808F072FF00F0020059
:10526000022801D121684861206808F069FF00F038
:105270000050B0F1005F16D14FF000502168486136
:10528000D8F8400400F0010068B91021384608F051
:105290009DFB384608F070FB0121206808F0F4FE01
:1052A0002046FFF78AFD206808F04AFF00F0807072
:1052B000B0F1807F02D1204603F0A9F9206808F000
:1052C0003FFF00F00800082805D1204600F08EF8C6
:1052D000082021684861206808F032FFC0F3001000
:1052E00080B12068806920F0100021688861204624
:1052F00003F0E8F92068806940F0100000E030E039
:1053000021688861206808F01BFF00F00070B0F190
:10531000007F26D1206808F04AFD0646002519E0E6
:1053200005F00F0101208840304090B108F5A060E1
:1053300000EB4510006800F40040B0F5004F04D1C8
:10534000E9B2204602F022FB03E0E9B2204602F077
:105350002BFE6D1CA068A842E2D84FF000702168B7
:10536000486100BF51E730B58BB0044614B9012045
:105370000BB030BD256894F8F90228B9002084F8F4
:10538000F802204600F029F8032084F8F902E86BBF
:1053900000F4807008B900212161206807F0C0FE88
:1053A000282204F110016846FBF7DBFC94E80F00AB
:1053B00007F08EFC0121206808F015FF282204F177
:1053C00010016846FBF7CDFC94E80F0008F0DEFD05
:1053D000012084F8F9020020CAE77047704770473F
:1053E00010B50446206808F0E0FE10BD10B5044674
:1053F000D4F8000305F067FF10BD10B5044600BFE8
:1054000094F8F802012801D1022010BD012084F88F
:10541000F80200BF0121206807F0ACFE206808F008
:10542000A3FA00BF002084F8F80200BF00BFECE739
:1054300010B5044600BF94F8F802012801D10220FB
:1054400010BD012084F8F80200BF206808F092FF28
:1054500000BF002084F8F80200BF00BFF0E70000A2
:105460000348006803490978084401490860704707
:10547000080000201000002010B50D48006840F41E
:1054800000700B4908600846006840F480600860BE
:105490000846006840F480700860032000F0A2F81D
:1054A000002000F007F800F02BF8002010BD0000ED
:1054B000003C024070B504460E4800784FF47A7103
:1054C000B1FBF0F00C490968B1FBF0F5284601F09A
:1054D0005CFE08B1012070BD102C07D200222146CD
:1054E000501E00F041F80548046001E00120F2E799
:1054F0000020F0E710000020000100200C00002038
:105500007047000010B501460846002817DB00F080
:105510001F0301229A400B4B440943F8242000BF8B
:1055200000BF00BFBFF34F8F00BF00BF00BF00BF71
:1055300000BF00BFBFF36F8F00BF00BF00BF00BF41
:1055400010BD000080E100E001460846002809DBAC
:1055500000F01F0301229A4043099B0003F1E0235E
:10556000C3F8002100BF70472DE9F05F80460D466B
:105570001646002729F02AFC074639462A463346B4
:1055800001F00700C0F1070ABAF1040F02D94FF089
:10559000040A01E0C0F1070AD14600F1040ABAF199
:1055A000070F02D24FF0000A01E0A0F1030AD4462F
:1055B0004FF0010A0AFA09FAAAF1010A0AEA020AF4
:1055C0000AFA0CFA4FF0010B0BFA0CFBABF1010BD2
:1055D0000BEA030B4AEA0B042146404629F0FEFB86
:1055E000BDE8F09F00BF00F00702064B19684FF6B8
:1055F000FF031940044B0B4343EA0221014B19609E
:1056000000BF70470CED00E00000FA0500BF00BFCE
:1056100000BF00BF00BFBFF34F8F00BF00BF00BF80
:105620000948006800F4E06008490843001D064985
:10563000086000BF00BF00BFBFF34F8F00BF00BFB7
:1056400000BF00BF00BFFDE70CED00E00000FA0561
:10565000704702461068416200207047F0B503466B
:1056600015461868446A21B944EA05401E68B062CC
:1056700019E01868806A04EB1044002208E01868FA
:1056800000F5827050F8220004EB1044501CC2B2A6
:10569000481E9042F3D844EA0547186800F5827026
:1056A0004E1E40F826700020F0BD10B50446D4F818
:1056B000080504F0D6FC10BD70B504460D4605EB98
:1056C000C50304F13C0101EB83010A692946D4F8C2
:1056D000080504F0C1FB70BD70B504460D4605EB2E
:1056E000C50304F51F7101EB83010A692946D4F84B
:1056F000080504F035FC70BD10B50446D4F8080563
:1057000004F0B2FC10BD2DE9F04104460D4605F051
:105710008000802808D105F00F0000EBC00104F1E3
:105720003C0000EB810607E005F00F0000EBC00134
:1057300004F51F7000EB81063146206808F09EF8E2
:1057400007463846BDE8F08170B504460E4606F0BF
:10575000800080280AD106F00F0000EBC00104F1A0
:105760003C0000EB81050120687009E006F00F00A5
:1057700000EBC00104F51F7000EB8105002068708C
:1057800006F00F00287000BF94F8BC04012801D176
:10579000022070BD012084F8BC0400BF29462068A7
:1057A00007F004FB00BF002084F8BC0400BF00BF6A
:1057B000EFE770B504460E4606F00F0061688842B8
:1057C00001D9012070BD06F0800080280AD106F0C2
:1057D0000F0000EBC00104F13C0000EB810501204B
:1057E000687009E006F00F0000EBC00104F51F70BF
:1057F00000EB8105002068700020A87006F00F0003
:10580000287000BF94F8BC04012801D10220D9E718
:10581000012084F8BC0400BF2946206807F0F6FD8B
:1058200000BF002084F8BC0400BF00BFCAE70246E6
:1058300001F00F0000EBC00302F51F7000EB8300C6
:10584000006A70472DE9F04705460E4690461F4610
:105850004FF0000906F0800080280AD106F00F0002
:1058600000EBC00105F13C0000EB810401206070F9
:1058700009E006F00F0000EBC00105F51F7000EB1A
:1058800081040020607006F00F002070C4F80C80C6
:105890002771607808B120782081022F01D1002083
:1058A000607100BF95F8BC04012802D10220BDE858
:1058B000F087012085F8BC0400BF2146286807F066
:1058C0008BF900BF002085F8BC0400BF4846EEE716
:1058D0002DE9F04104460E461746984606F00F00A3
:1058E00000EBC00104F51F7000EB81052F61C5F8C6
:1058F000188000202862687006F00F002870206968
:10590000012800D16F6106F00F0028B9227C2946DA
:10591000206807F055FC04E0227C2946206807F047
:1059200009FE0020BDE8F08170B504460D4605F083
:105930000F006168884201D9012070BD05F0800028
:1059400080280AD105F00F0000EBC00104F13C00F3
:1059500000EB81060120707007E005EBC50104F53E
:105960001F7000EB8106002070700120B07005F000
:105970000F00307000BF94F8BC04012801D1022050
:10598000DBE7012084F8BC0400BF3146206807F043
:1059900084FD05F00F0028B9217C04F2C442206880
:1059A00007F0FCFC00BF002084F8BC0400BF00BF6F
:1059B000C3E72DE9F04104460E461746984606F027
:1059C0000F0000EBC00104F13C0000EB81052F61EA
:1059D000C5F81880002028620120687006F00F00CA
:1059E00028702069012800D16F6106F00F0028B9E6
:1059F000227C2946206807F0E3FB04E0227C29464C
:105A0000206807F097FD0020BDE8F0812DE9FE4FEA
:105A10000446D4F800B05E46206808F029F8002853
:105A200074D1206808F08CFB08B9BDE8FE8F40F601
:105A300008008059C0F30D20C4F8FC04206808F069
:105A40007FFB00F00200022805D12068406900F0C9
:105A5000020021684861206808F072FB00F0100025
:105A6000102845D12068806920F0100021688861E5
:105A7000DBF8209009F00F0000EBC00104F51F7067
:105A800000EB810AC9F3434002281AD147F6F070AF
:105A900009EA000030B3C9F30A125846DAF81010C8
:105AA00008F053FBC9F30A11DAF810000844CAF8E9
:105AB0001000C9F30A11DAF820000844CAF82000DF
:105AC00010E0C9F3434006280CD1082204F2C44177
:105AD000584608F03AFBC9F30A11DAF820000844E6
